:100000000C944B010C9473010C9473010C947301C8
:100010000C9473010C9473010C9473010C94730190
:100020000C9473010C9473010C94A3100C94121192
:100030000C9473010C9473010C9473010C94730170
:100040000C9473010C9473010C9473010C94730160
:100050000C9473010C9473010C9473010C9459105B
:100060000C9473010C9473010C9473010C94730140
:100070000C9473010C9473010C9473010C94730130
:100080000C9473010C9473010C9473010C94730120
:100090000C9444130C9473010C9473010C9473012D
:1000A0000C9473010C9473010C9473013B434C55F5
:1000B0005443483D003B4252414B453D004741536C
:1000C0003D00434F4E4649473A00080B00020202EA
:1000D00000000904000001020200000524001001D4
:1000E0000524010101042402060524060001070578
:1000F000810310004009040100020A000000070506
:1001000002024000000705830240000004030904C6
:1001100012010002EF020140712367800001010219
:10012000030153524300535243205831462D455347
:10013000504F5254530041434B3A534156450041AE
:10014000434B3A5345545F43414C49423A00414383
:100150004B3A5345545F4D41583A434C55544348EC
:100160003D0041434B3A5345545F4D494E3A434C51
:10017000555443483D0041434B3A5345545F4D412C
:10018000583A4252414B453D0041434B3A53455446
:100190005F4D494E3A4252414B453D0041434B3A37
:1001A0005345545F4D41583A4741533D0041434BFD
:1001B0003A5345545F4D494E3A4741533D00414300
:1001C0004B3A52455345543A434C555443480041E9
:1001D000434B3A52455345543A4252414B450041F4
:1001E000434B3A52455345543A4741530041434BE0
:1001F0003A52455345545F414C4C00312E302E301D
:10020000002C46573A00535243205831462D45534F
:10021000504F525453005352435F4445564943454F
:100220003A0054454C3A0000000000250028002BFD
:10023000002E003100040404040403040502020239
:10024000020403020202020606060606060404026F
:100250000202040404080201104080401020408083
:10026000408008020401804020100201108010200C
:100270004040200000000200090F000003040100BC
:100280000C00000000000000000000000000000062
:100290000000C214CB1E11241FBECFEFDAE0DEBF78
:1002A000CDBF12E0A0E0B1E0ECE1F9E402C00590BE
:1002B0000D92A431B107D9F724E0A4E1B2E001C066
:1002C0001D92A635B207E1F711E0CAE4D1E004C0FF
:1002D0002197FE010E947121C934D107C9F70E94FC
:1002E000DB160C9481240C940000EBEBF2E085E526
:1002F0009AEA880F991F2191822722E0E03EF207B7
:10030000C1F70895089508954F925F926F927F927A
:100310008F929F92AF92BF92CF92DF92EF92FF9215
:100320000F931F93CF93DF93E5010C151D052E0549
:100330003F050CF051C028013901460157018823BF
:1003400009F44FC0CA01DB0184159505A605B70560
:1003500014F4D301C201B501A40188159905AA05B9
:10036000BB0514F4AC01BD01C016D106E206F306CC
:1003700064F4D501C401841B950BA60BB70BAC012B
:10038000BD01440D551D661D771D9A01AB01241951
:10039000350946095709AFEFBFEF0E944720A50175
:1003A000940124193509460957090E9428202883F9
:1003B000398382E090E0DF91CF911F910F91FF9000
:1003C000EF90DF90CF90BF90AF909F908F907F90F5
:1003D0006F905F904F9008952601370148015901B1
:1003E000AECF90E080E0E7CFFC018091B602882399
:1003F00011F13FB7F89482E08093E9002091F20078
:10040000822F90E01816190614F481E090E08823FA
:1004100039F0289844E64093B5024091F1004083BA
:10042000222339F02091F200211103C02BE6209302
:10043000E8003FBF08958FEF9FEF0895282F30E029
:10044000F901ED58FD4F9491F901EC5AFD4F84915B
:100450002B5C3D4FF9012491222309F430C09923EC
:10046000E9F091509F30D0F4E92FF0E0E65CFD4FC9
:100470000C94712168026C024902600264024E020F
:100480004E024E026F02750279027D0283024E0215
:100490008702909180009F7790938000E22FF0E098
:1004A000EE0FFF1FE95DFD4FA591B4919FB7F89442
:1004B000EC91611132C080958E238C939FBF08957B
:1004C000909180009F7DE8CF90918000977FE4CF4E
:1004D00094B59F7794BDE2CF94B59F7DFBCF90916B
:1004E00090009F7790939000D9CF909190009F7D3E
:1004F000F9CF90919000977FF5CF9091C0009F77B2
:100500009093C000CBCF9091C0009F7DF9CF909188
:10051000C200977F9093C200C1CF8E2BCECF3FB742
:10052000F8948091B1029091B202A091B302B0917F
:10053000B40226B5A89B05C02F3F19F00196A11D56
:10054000B11D3FBFBA2FA92F982F8827BC01CD011D
:10055000620F711D811D911D42E0660F771F881F7C
:10056000991F4A95D1F708958F929F92AF92BF92AB
:10057000CF92DF92EF92FF924B015C010E948F02BB
:100580006B017C010E948F026C197D098E099F0905
:10059000683E734081059105A8F321E0821A910815
:1005A000A108B10888EEC80E83E0D81EE11CF11C3A
:1005B00081149104A104B10429F7FF90EF90DF901A
:1005C000CF90BF90AF909F908F9008952FB7F894E1
:1005D0006091AD027091AE028091AF029091B00235
:1005E0002FBF089540917E0250917F0220917C029E
:1005F00030917D0242175307B4F49091E800957052
:10060000E1F39091E80092FD19C08093F100809190
:100610007E0290917F0201968F739927892B19F49E
:100620008EEF8093E80080917E0290917F02019688
:1006300090937F0280937E0281E0089580E0089588
:10064000EF92FF920F931F93CF93DF93F82E192F02
:10065000E62E042F81E0860F880F0E94F20283E0CD
:100660000E94F202CF2DD12FEC0EFD2EF11CCE15E3
:10067000DF05B9F007FF13C0FE0184910E94F2026A
:10068000182F80E00E94F202812321968111EFCF82
:10069000DF91CF911F910F91FF90EF900895888186
:1006A000EDCF81E0F5CFDF92EF92FF920F931F9392
:1006B000CF93DF93D82E8A01EB017B01E40EF51E68
:1006C000CE15DF0559F0D7FE12C0FE0184910E94BD
:1006D000F20221968111F4CF0FEF1FEFC801DF91D5
:1006E000CF911F910F91FF90EF90DF900895888137
:1006F000EECF2FB7F89487708093E9009091E800CF
:10070000892F807295FF04C09091F20080E4891BCC
:100710002FBF08957F928F929F92AF92BF92CF92F8
:10072000DF92EF92FF920F931F93CF93DF93C82E28
:100730008B017A018091B602811110C08FEF9FEF7B
:10074000DF91CF911F910F91FF90EF90DF90CF90AD
:10075000BF90AF909F908F907F900895809182027C
:1007600080FF05C08091E00082608093E000CE2D84
:10077000DF2DD12C8AEFB82E8C2D8770982E8C2DE2
:100780008072882E8C2D8074782E9AE3A92E209763
:1007900019F4DD2009F452C08C2D0E9479038111D7
:1007A0000AC0BA94BB2051F261E070E080E090E0B2
:1007B0000E94B402ECCF8C171D0611F00CF08C2FA8
:1007C0009FB7F8949092E9002091E80025FD02C0BF
:1007D0009FBFDDCF282F30E0C21BD30B882029F02C
:1007E0008150A0F01092F100FBCFF801C7FC0AC0C5
:1007F000815050F041914093F100FACF44914093E1
:10080000F10031968150D0F7020F131FDD2021F047
:10081000A092E800D12CDCCF8091E80085FD07C0D4
:10082000A092E800DD24D394209791F2F3CF209793
:1008300079F6772069F2A092E800CACF5D9884E645
:1008400080938102C7017CCF615030F02091F1008C
:10085000FC0120830196F8CF289884E68093B502A6
:1008600008958091740281110DC082E0809370021E
:1008700084E080937102109273021092720281E000
:100880008093740280E792E008950F931F93CF93B3
:10089000DF931F92CDB7DEB782E0898342E450E058
:1008A0006AEC70E080E80E9453030E943104DC018E
:1008B00012960D911C910115110589F0D801ED9149
:1008C000FC910280F381E02DBE016F5F7F4FC80174
:1008D000099597FD04C0F80100851185ECCF898149
:1008E0000F90DF91CF911F910F910895CF93DF93D8
:1008F000EC0180911201882331F083E00E948A0389
:100900001816190634F081E090E09B838A8380E01A
:1009100090E0DF91CF910895CF93DF931F92CDB7F1
:10092000DEB76983DC01ED91FC910280F381E02D5B
:1009300041E050E0BE016F5F7F4F09950F90DF915E
:10094000CF910895682F84E593E00C948C040F9365
:100950001F93CF93DF938C01D0E0C0E0F801EC0F40
:10096000FD1F6491662341F084E593E00E948C04AE
:10097000892B11F02196F2CFCE01DF91CF911F91FB
:100980000F91089583E08093E9008091F20088231D
:1009900019F08AE38093E800089583E00E947903C8
:1009A00090E00895CF93DF931F92CDB7DEB7FC019F
:1009B0008485958597FD08C02FEF3FEF3587248705
:1009C0000F90DF91CF910895CE0101960E94F4011E
:1009D000019719F4898190E0F3CF8FEF9FEFF0CF6B
:1009E0000F931F93CF93DF931F92CDB7DEB78C0188
:1009F000FC018485958597FF0BC0CE0101960E946E
:100A0000F401019771F4898190E0F801958784875A
:100A1000F801848595850F90DF91CF911F910F91FB
:100A200008958FEF9FEFF1CFFC018485958597FDA9
:100A30000BC09FB7F89482E08093E9008091F200A8
:100A40009FBF90E0019608959FB7F89482E080934D
:100A5000E9008091F2009FBF90E00895DC01FB0166
:100A600012962C911297848195812817190641F4CA
:100A700091818081813A31F49D7F81E0913009F04C
:100A800080E008958132E1F79B3029F482811F963E
:100A90008C9381E008959A3099F7828150968C93D7
:100AA000F8CFDC01FB0188E4808389E4818384E45E
:100AB00082831D969C911D979F709F5B93831D96CB
:100AC0008D919C9124E0969587952A95E1F78F70FA
:100AD0008F5B848385E00895EF92FF920F931F93BD
:100AE000CF93DF93FB012081213889F523812232C6
:100AF00071F5DC0112964C91248135814217130661
:100B000031F58C01FC01C385D485F12CE12C2097B3
:100B100091F04C815D816A817B818E81811180E8B9
:100B20000E9453038F3F980759F0E80EF91E099071
:100B3000D881C02DECCF81E0D8011F968C93C701DE
:100B4000DF91CF911F910F91FF90EF90089590E06A
:100B500080E0F6CFCF93DF93CDB7DEB769970FB6BE
:100B6000F894DEBF0FBECDBFFC01DB018C918F5F1F
:100B70008C939E012D5F3F4F8DE0D9011D928A9588
:100B8000E9F729E0298384E08A8391E09D8383E06B
:100B90008E832A8721E22B879C879D879F8722E26D
:100BA000288B27E02B8B25E02C8B8E8B20E430E0EC
:100BB000388F2F8B998F82818B8395858685998B32
:100BC0008A8B838180688D8B49E150E0BE016F5F25
:100BD0007F4F80E00E94530369960FB6F894DEBF02
:100BE0000FBECDBFDF91CF910895CF93DF9380915A
:100BF0006802811167C081E080935B0280935C0290
:100C000021E632E030935E0220935D021092600292
:100C100010925F0225E231E0309358022093570290
:100C200010926302109262021092650210926402A6
:100C3000809366028093670281EC809361020E9438
:100C40003104FC01818190915B02482F490F5527A7
:100C5000551F483051059CF5A281B381109709F5C5
:100C600027E532E033832283208120935902809349
:100C70005A0280915C02820F808320915D02A22F34
:100C8000B0915E028A2F821B8917C8F481813D9141
:100C9000C82FD0E0C050DF4F38838F5F8183F2CF01
:100CA000D90118962D913C91199721153105C1F75D
:100CB00027E532E019963C932E931897D5CF81E023
:100CC0008093680287E592E0DF91CF9108952091AB
:100CD0003402260F3327331F21323105ECF42091E3
:100CE0002A03FC0190E080E0243069F082E008955E
:100CF000A09134022191AC014C5E5D4FA40FB52F41
:100D0000B11D2C930196861798F380913402680FD9
:100D10006093340280E0089581E0089510922A03E0
:100D200081E0809329031092040361E082E00E9435
:100D30001E0261E083E00E941E02E9EBF0E0808188
:100D40008E7F808380818D7F808388E48093B8004C
:100D500085E48093BC0008951092E3021092E202B1
:100D600010923103109253030E948E0682E891E0A4
:100D70009093BA028093B90283E891E09093B8020D
:100D80008093B7020895CF93DF9391E0909384020C
:100D90008823B9F0C091B800D091BA008091BC000E
:100DA0008A7B8093BC0060E082E00E941E0260E0CB
:100DB00083E00E941E020E948E06D093BA00C09368
:100DC000B800DF91CF9108958F929F92AF92BF921A
:100DD000CF92DF92EF92FF920F931F93CF93DF9307
:100DE000D0915303D13208F0D7C0182FC0915203CD
:100DF0000E948F026B017C0180912A0381116BC0DC
:100E000082E080932A03109329038FEF80932803B5
:100E100010922703D0932603A2E3B3E0E6E0F3E0C9
:100E200080E0D81391C01092050380910503CC0F88
:100E3000C82BC093050380910403813009F088C05A
:100E4000109204030E948F026B017C0180910503C4
:100E50008093BB0080912C0390912D03A0912E03D1
:100E6000B0912F03892B8A2B8B2BA1F00E948F022C
:100E700000912C0310912D0320912E0330912F030C
:100E80006C197D098E099F0906171707280739076E
:100E900008F442C08091BC0083FDD8CF85EC8093DC
:100EA000BC000E948F026B017C0180912A0382307A
:100EB00009F450C0809128038F3F09F46FC08091DE
:100EC0002803803209F46CC080912803803309F430
:100ED00069C084E026C080912C0390912D03A091DD
:100EE0002E03B0912F03892B8A2B8B2B09F484CFEF
:100EF0000E948F0280902C0390902D03A0902E03CF
:100F0000B0902F036C197D098E099F0986169706EC
:100F1000A806B90608F070CF80912B030E94C30683
:100F200085E0109231031092530310923003DF9149
:100F3000CF911F910F91FF90EF90DF90CF90BF90D6
:100F4000AF909F908F9008959D9191938F5F69CFFF
:100F500085EEA5CF80912C0390912D03A0912E03B7
:100F6000B0912F03892B8A2B8B2B09F49ECF0E94E3
:100F70008F0200912C0310912D0320912E033091AC
:100F80002F036C197D098E099F090617170728077B
:100F9000390708F08ACFC0CF81E0C3CF80E0C1CF4E
:100FA00082E0BFCF83E0BDCFCF93DF93EA01DC01C6
:100FB00011968D919C91DC01ED91FC910280F38161
:100FC000E02D0995C817D90729F481E00E94E406AD
:100FD00091E0811190E0892FDF91CF910895CF9317
:100FE000DF93EC018B818823A1F0888191E09093BD
:100FF000300380935203109231031092530381E027
:101000000E94E40691E0811190E0892FDF91CF9159
:1010100008950E94AC0681E08B83CE010E94EF0709
:10102000982F8111E2CFF1CF0895E091E3028091F2
:10103000E202E81730F4F0E0EC51FD4F808190E0DF
:1010400008958FEF9FEF08959091E3028091E2025F
:101050002FEF3FEF981748F4E92FF0E0EC51FD4FE8
:10106000208130E09F5F9093E302C9010895809151
:10107000E2029091E302891B990B0895CF92DF92CF
:10108000EF92FF920F931F93CF93DF937C01CB01DD
:101090008A0120913003222389F0EB016B01C40EF9
:1010A000D51ECC15DD0569F06991D701ED91FC9154
:1010B0000190F081E02DC7010995F3CF642F0E94C4
:1010C0006706C801DF91CF911F910F91FF90EF90BC
:1010D000DF90CF900895CF93DF931F92CDB7DEB707
:1010E0006983209130032223F9F0209153032032A9
:1010F00058F021E030E0FC013383228390E080E06F
:101100000F90DF91CF91089580913103E82FF0E0A7
:10111000EE5CFC4F998190838F5F809331038093C5
:10112000530381E090E0ECCF61E0CE0101960E9494
:101130006706F7CF90E080E008954F925F926F923C
:101140007F928F929F92AF92BF92CF92DF92EF9257
:10115000FF920F931F93CF93DF93CDB7DEB76297C4
:101160000FB6F894DEBF0FBECDBF6D877E878F8729
:10117000988B5A8B498BDA011A968C91882391F0BF
:101180008FEF9FE7A0E0B0E04C015D01ED84FE84AD
:101190000F8518898E189F08A00AB10A8D869E8631
:1011A000AF86B88AA989BA898D909D90AD90BC9080
:1011B00013978D829E82AF82B88614968D909D90F3
:1011C000AD90BC90179789829A82AB82BC82ED80E9
:1011D000FE800F8118858E149F04A006B10664F46A
:1011E0003D812E819F8188858D829E82AF82B886C7
:1011F00039832A839B838C8389809A80AB80BC80CF
:10120000ED80FE800F8118858E189F08A00AB10A14
:1012100089869A86AB86BC86181419041A041B04A6
:101220000CF096C0A989BA8918966C9170E090E08C
:1012300080E0A50194010E947721F4E6AF2EB12C45
:10124000C12CD12CE12CF12C00E010E00E94B32144
:1012500049015A014D805E806F807884480C591C8A
:101260006A1C7B1CE989FA89618570E090E080E066
:1012700029853A854B855C850E947721A4E6AA2EB4
:10128000B12CC12CD12CE12CF12C0E94B3214901AD
:101290005A01C980DA80EB80FC80C818D908EA08B6
:1012A000FB084C145D046E047F0444F0C980DA80AE
:1012B000EB80FC804D805E806F8078848D859E857C
:1012C000AF85B8898115F0E89F07A105B10524F025
:1012D0008FEF9FE7A0E0B0E0B7FF03C080E090E0B1
:1012E000DC01481659066A067B06B4F58C159D0587
:1012F000AE05BF050CF059C0BC01CD0164197509DC
:10130000860997092FEF3FE740E050E00E947721E0
:101310004601570184189508A608B708240135012D
:10132000BB0C8808982C540189829A82AB82BC82BB
:1013300052016301E980FE2C0E2D1E2D0E94B32167
:10134000C901DA01522F492F3A2F2B2FB7FF08C0BE
:1013500060E070E0CB0112C050E040E030E020E0FF
:10136000652F742F832F922F611500E87007810578
:10137000910524F06FEF7FE780E090E062960FB672
:10138000F894DEBF0FBECDBFDF91CF911F910F91BB
:10139000FF90EF90DF90CF90BF90AF909F908F9095
:1013A0007F906F905F904F9008955FEF4FE7D6CF9B
:1013B000CF93DF93CBEBD2E081E393E4A2E5B3E5F7
:1013C00088839983AA83BB831C821D821E821F820D
:1013D0008FEF9FE7A0E0B0E088879987AA87BB8757
:1013E00022E02C872D8731E03E871F86188A198AD4
:1013F0001A8A8B8B9C8BAD8BBE8B2F8B388F198E63
:101400001A8E1B8E1C8E1D8E8E8F9F8FA8A3B9A344
:1014100083E08AA38BA31CA20E9475019EA38DA3C7
:10142000DF91CF9108952F923F924F925F926F92EA
:101430007F928F929F92AF92BF92CF92DF92EF9264
:10144000FF920F931F93CF93DF938093BD038091FF
:10145000B6039091B703DC0114962D913C9115973A
:10146000232B81F02C9131E03093300320935203F1
:10147000109231031092530341E050E06DEB73E0A2
:101480000E94D407C090B603D090B70310E000E0EC
:1014900082E0A82EB12CD1E033243A9495EE892E27
:1014A00025EC922EF601848195817501E01AF10AEE
:1014B0008E159F0508F47C01D6012C900E948F02A6
:1014C0002B013C0180912A0381116FC0CE2DC132C6
:1014D00008F0C0E2D0932A0321E0C5018E199F09CC
:1014E0000817190708F420E02093290330922803F5
:1014F000109227038FEF8C0F80932603D093050360
:1015000080910503220C282A209205038091040370
:10151000813009F095C0109204030E948F022B01C4
:101520003C01809105038093BB0080912C03909136
:101530002D03A0912E03B0912F03892B8A2B8B2B87
:10154000A1F00E948F0220912C0330912D03409135
:101550002E0350912F0364197509860997092617E0
:1015600037074807590708F441C08091BC0083FD44
:10157000D8CF9092BC000E948F022B013C01809139
:101580002A03813009F45FC0809127038C1710F47F
:10159000C0912703A6E0B3E0E4EEF2E080E08C1710
:1015A00051F19D9191938F5FFACF80912C0390918F
:1015B0002D03A0912E03B0912F03892B8A2B8B2B07
:1015C00009F480CF0E948F0220912C0330912D03CB
:1015D00040912E0350912F036419750986099709CC
:1015E000261737074807590708F06CCF80912B035F
:1015F0000E94C306C0E01092E302C093E202CE153F
:101600001F0409F048C0F801EA54FC4F3F01C30130
:10161000801B910B865B93408E159F05B0F5D6011C
:1016200011968D919C91DC01ED91FC910284F385E2
:10163000E02D0995F3018783FFEF6F1A7F0AE7CF4B
:101640008092BC0098CF80912C0390912D03A091A3
:101650002E03B0912F03892B8A2B8B2B09F48FCF6C
:101660000E948F0220912C0330912D0340912E0374
:1016700050912F03641975098609970926173707B2
:101680004807590708F07BCFB1CF0E0D1F1D023060
:10169000110508F407CF8091BD039091BE039827F0
:1016A00089279827DF91CF911F910F91FF90EF909D
:1016B000DF90CF90BF90AF909F908F907F906F9072
:1016C0005F904F903F902F9008958093BD0370934B
:1016D000BE036093BF038091B6039091B703FC01F2
:1016E000248135812330310580F0208131E0309331
:1016F000300320935203109231031092530343E0BE
:1017000050E06DEB73E00C94D4070895CF92DF9214
:10171000EF92FF92CF93DF93EB019091A50291118D
:1017200008C0CE01DF91CF91FF90EF90DF90CF9076
:1017300008956091B9037091BA032091BB03309171
:10174000BC03622B732B7168E82FF0E0EE0FFF1FD4
:10175000E75EFE4F80819181682B792B81E00E94AA
:10176000650B60E070E883E00E94650B70E060E06C
:1017700082E00E94650B0E94E6026B017C0181E021
:101780000E94130A97FD0CC00E94E6026C197D09A5
:101790008E099F09653071058105910580F3C1CFE0
:1017A00080E00E94130A2091B803022E02C0969591
:1017B00087950A94E2F7222329F0811528E0920701
:1017C00008F0906F97FFAECF90E080E0ABCF8F92A4
:1017D0009F92AF92BF920F931F93CF93DF93CDB79A
:1017E000DEB7A1970FB6F894DEBF0FBECDBF19A22A
:1017F000423008F44AE08E010F5D1F4F842E912C79
:10180000B12CA12CA50194010E948920E62FB901D9
:10181000CA01EA3044F5E05DD801EE938D01232B37
:10182000242B252B79F790E080E0109769F0FD01DB
:1018300001900020E9F73197AF014A1B5B0BBD0116
:1018400084E593E00E947604A1960FB6F894DEBF7B
:101850000FBECDBFDF91CF911F910F91BF90AF9081
:101860009F908F900895E95CD7CF682F70E090E04B
:1018700080E04AE00C94E70BCF92DF92EF92FF9268
:10188000CF93DF9397FF19C06B017C018DE20E941B
:10189000A204EC0166277727CB016C197D098E091C
:1018A0009F094AE00E94E70B8C0F9D1FDF91CF91AB
:1018B000FF90EF90DF90CF9008954AE0DF91CF91B5
:1018C000FF90EF90DF90CF900C94E70B42E050E058
:1018D00061E571E084E593E00C947604CF93DF93A7
:1018E0000E94A704EC010E94660C8C0F9D1FDF91E3
:1018F000CF910895CF93DF930E943C0CEC010E949E
:10190000660C8C0F9D1FDF91CF910895CF93DF93CD
:1019100082EC90E00E94A7048DEB90E00E94A70467
:10192000CBEBD2E06C817D818E819F810E943C0C4B
:101930008CE20E94A204688579858A859B850E9435
:101940003C0C8CE20E94A2048C850E94350C8CE237
:101950000E94A2048D850E94350C8CE20E94A20494
:101960008E850E94350C85EB90E00E94A7046F8560
:10197000788989899A890E943C0C8CE20E94A20491
:101980006B897C898D899E890E943C0C8CE20E9427
:10199000A2048F890E94350C8CE20E94A204888DDB
:1019A0000E94350C8CE20E94A204898D0E94350CA5
:1019B0008CEA90E00E94A7046A8D7B8D8C8D9D8DB2
:1019C0000E943C0C8CE20E94A2046E8D7F8D88A147
:1019D00099A10E943C0C8CE20E94A2048AA10E9460
:1019E000350C8CE20E94A2048BA10E94350C8CE283
:1019F0000E94A2048CA10E94350CDF91CF910C941F
:101A0000660CCF93DF938091B6039091B703009754
:101A100011F00E940A2386E090E00E946E22EC0101
:101A200088E4888384EA93E09A8389831B8280E236
:101A300090E09D838C83D093B703C093B6030E943C
:101A4000AC0681E08B83CE01DF91CF910C94EF0740
:101A5000FC0180819181009711F00C940A23089574
:101A60004F925F926F927F928F929F92AF92BF92AE
:101A7000CF92DF92EF92FF920F931F93CF93DF935A
:101A8000CDB7DEB74DB65EB6809151042DB73EB7E7
:101A9000281B31090FB6F8943EBF0FBE2DBF8DB77E
:101AA0009EB701963C018090F403912C8091F00345
:101AB0009091F103D301FC019F01281B390B2815DC
:101AC00039051CF421912D93F7CF8091F5038823DC
:101AD00059F18091EC039091ED0328E097FD09C046
:101AE00068E671E00E945D216DE270E00E945D2178
:101AF000262F8091EE039091EF0368E097FD08C0D8
:101B000068E671E00E945D216DE270E00E945D2157
:101B1000F301E80DF91D90E1699FB0011124262B16
:101B20002083F40131964F015301A80CB91CC090D9
:101B3000FC03D090FD03E090FE03F090FF030091C2
:101B4000F8031091F9032091FA033091FB034091BF
:101B5000C0035091C1036091C2037091C30380918F
:101B6000F60381700E948401880E991E5301A80C0F
:101B7000B91CC0900404D0900504E0900604F090D5
:101B80000704009100041091010420910204309197
:101B900003044091C4035091C5036091C603709142
:101BA000C7038091F603869581700E948401880E98
:101BB000991E5301A80CB91CC0900C04D0900D04C0
:101BC000E0900E04F0900F040091080410910904B5
:101BD00020910A0430910B044091C8035091C9032D
:101BE0006091CA037091CB038091F60382FB882732
:101BF00080F90E948401880E991E5301A80CB91C1B
:101C0000C0901404D0901504E0901604F0901704CE
:101C100000911004109111042091120430911304CA
:101C20004091CC035091CD036091CE037091CF03CE
:101C30008091F60383FB882780F90E948401880E37
:101C4000991E5301A80CB91CC0901C04D0901D040F
:101C5000E0901E04F0901F040091180410911904E4
:101C600020911A0430911B044091D0035091D1036C
:101C70006091D2037091D3038091F60382958170B5
:101C80000E948401880E991E5301A80CB91CC090B3
:101C90002404D0902504E0902604F09027040091BD
:101CA00020041091210420912204309123044091BA
:101CB000D4035091D5036091D6037091D7038091DE
:101CC000F60385FB882780F90E948401880E991EFF
:101CD0005301A80CB91CC0902C04D0902D04E090A6
:101CE0002E04F0902F0400912804109129042091D3
:101CF0002A0430912B044091DC035091DD03609164
:101D0000DE037091DF038091F70381700E948401EC
:101D1000880E991E5301A80CB91CC0903404D090B1
:101D20003504E0903604F0903704009130041091AF
:101D3000310420913204309133044091D803509102
:101D4000D9036091DA037091DB038091F7038695E4
:101D500081700E948401880E991E5301A80CB91C41
:101D6000C0903C04D0903D04E0903E04F0903F04CD
:101D7000009138041091390420913A0430913B04C9
:101D80004091E0035091E1036091E2037091E3031D
:101D90008091F70382FB882780F90E948401880ED6
:101DA000991E5301A80CB91CC0904404D09045045E
:101DB000E0904604F09047040091400410914104E3
:101DC00020914204309143044091E4035091E50393
:101DD0006091E6037091E7038091F70383FB882706
:101DE00080F90E948401880D991D5301A80EB91E27
:101DF000C0904C04D0904D04E0904E04F0904F04FD
:101E0000009148041091490420914A0430914B04F8
:101E10004091E8035091E9036091EA037091EB036C
:101E20008091F703829581700E9484010E94F505DC
:101E30004C01409151048091500450E05A01FFEF51
:101E4000AF1ABF0A2DB73EB72A193B090FB6F8944F
:101E50003EBF0FBE2DBF0DB71EB70F5F1F4FEDB7B3
:101E6000FEB78183B301C80101960E945824F40192
:101E70008381A501B80180640E948A030FB6F8949B
:101E80005EBE0FBE4DBEDF91CF911F910F91FF90AF
:101E9000EF90DF90CF90BF90AF909F908F907F900A
:101EA0006F905F904F900895EF92FF920F931F9362
:101EB000CF93DF938617970769F1FC012481358161
:101EC000FB014481558124173507E1F4232B11F1DF
:101ED000FC0100811181FB01C081D181F801819158
:101EE0008F018823B9F0082E000C990B0E94502412
:101EF0007C018991082E000C990B0E945024E81651
:101F0000F90661F380E0DF91CF911F910F91FF906F
:101F1000EF90089581E0F7CF0F931F93CF93DF9356
:101F2000EC0188819981009759F02A813B8126171D
:101F3000370730F081E0DF91CF911F910F91089525
:101F40008B016F5F7F4F0E949323009759F0998315
:101F500088831B830A832C813D81232B59F7FC0145
:101F60001082E8CF80E0E7CFEF92FF920F931F93AC
:101F7000CF93DF93EC017B018A01BA010E948C0FA1
:101F800028813981811114C02115310519F0C90149
:101F90000E940A23198218821D821C821B821A82C7
:101FA000CE01DF91CF911F910F91FF90EF90089597
:101FB0001D830C83B701C9010E946C24F1CFFC0181
:101FC000118210821382128215821482FB01019009
:101FD0000020E9F73197AF01461B570B0C94B40F63
:101FE00085ED8093BC0080912C0390912D03A091EE
:101FF0002E03B0912F030796A11DB11D23E0B695C6
:10200000A795979587952A95D1F72091BC0024FD37
:1020100003C010922A03089540912C0350912D0380
:1020200060912E0370912F03452B462B472B69F3AC
:102030000097A105B10541F02AE22A95F1F700C009
:102040000197A109B109E1CF80912B030C94C3063C
:10205000FF920F931F93CF93DF9381E393E4A2E565
:10206000B3E58093BB029093BC02A093BD02B093F2
:10207000BE020E9475019093E1028093E0020BEB97
:1020800012E0D0E0C0E0F801F1908F01CE010E9493
:102090001220F81621F06F2DCE010E941A202196F1
:1020A000C732D10581F7DF91CF911F910F91FF903A
:1020B00008951F920F920FB60F9211242F933F9302
:1020C0008F939F93AF93BF938091AD029091AE0297
:1020D000A091AF02B091B0023091AC0223E0230F87
:1020E0002D3758F50196A11DB11D2093AC028093A8
:1020F000AD029093AE02A093AF02B093B002809174
:10210000B1029091B202A091B302B091B4020196D3
:10211000A11DB11D8093B1029093B202A093B302AE
:10212000B093B402BF91AF919F918F913F912F9146
:102130000F900FBE0F901F90189526E8230F029660
:10214000A11DB11DD2CF1F920F920FB60F92112475
:102150008F939F938091E1009091E100937F909302
:10216000E10083FF0FC01092E90091E09093EB0033
:102170001092EC0092E39093ED001092B60298E07A
:102180009093F00082FF22C093E09093E900909139
:10219000F200992319F09AE39093E800909181025C
:1021A000992341F090918102915090938102911175
:1021B00001C05D9A9091B502992341F09091B502CA
:1021C00091509093B502911101C0289A84FF18C0D4
:1021D0008091E2008E7E81608093E2008091E10038
:1021E0008F7E8093E100809182028E7E8061809359
:1021F00082029F918F910F900FBE0F901F901895A4
:1022000080FFF7CF8091E2008E7E80618093E200B4
:102210008091E1008E7E8093E100809182028E7E2B
:102220008160E5CF1F920F920FB60F921124CF92CB
:10223000DF92EF92FF920F931F932F933F934F9351
:102240005F936F937F938F939F93AF93BF93EF931E
:10225000FF93CF93DF93CDB7DEB76C97DEBFCDBFD3
:102260001092E9008091E80083FF25C068E0CE016C
:1022700045960E94240482EF8093E8008D8987FFB1
:1022800039C09091E80090FFFCCF982F907609F02C
:1022900034C19E894F89588D2F89F88C911131C096
:1022A000803861F5809183028093F1001092F100F3
:1022B0008EEF8093E8006C960FB6F894DEBF0FBEE9
:1022C000CDBFDF91CF91FF91EF91BF91AF919F91E2
:1022D0008F917F916F915F914F913F912F911F91BE
:1022E0000F91FF90EF90DF90CF900F900FBE0F9067
:1022F0001F9018959EEF9093E800C7CF1092F100C1
:10230000D5CF913059F48111D3CF4130510581F6A9
:10231000809183028D7F80938302CACF933049F4EA
:102320008111C6CF4130510519F680918302826038
:10233000F2CF953041F48091E80080FFFCCF206817
:102340002093E300B5CF963009F0A9C00B8D1C8D0A
:1023500022E01092E90010927F0210927E02F212A7
:102360002EC010927D0210927C020E9445041F82B2
:1023700099E09983FA8291E09E8390EA98879AEF98
:10238000998720917E0230917F02275F3F4F3C83E7
:102390002B838D831092E90010927F0210927E02AF
:1023A00010937D0200937C0249E050E0BE016F5F14
:1023B0007F4F80E00E9453030E94450479CF109321
:1023C0007D0200937C020E943104DC0112960D9183
:1023D0001C910115110509F451C1D801ED91FC9131
:1023E0000480F581E02DBE016B5E7F4FC801099529
:1023F000009709F03EC1F80100851185EACFF3E0AE
:10240000FF120EC08F89882309F440C0823061F426
:1024100040E86FE086E291E00E942003811148CFFE
:1024200081E28093EB0047CF813029F440E863E0FC
:1024300082E291E0F1CF833099F70E943104DC0110
:102440001296ED90FC908E010F5F1F4F6801E11412
:10245000F10479F0D701ED91FC910680F781E02D30
:10246000B801C7010995080F111DF701E084F18437
:10247000EECFD8011C92F60101900020E9F73197C8
:10248000BF016C197D0940E0C601C6CF6CE071E068
:10249000FB01449150E080E80E94530309CF97303C
:1024A00009F4BECF983021F481E08093F10000CF91
:1024B000993009F0FDCE837009F0B2CFE1E0F1E090
:1024C00081E031E096E32191222371F08093E900CD
:1024D0003093EB00DF0111972C912093EC00909347
:1024E000ED008F5F873079F78EE78093EA001092D6
:1024F000EA008F898093B602DBCE8B8D9C8D109283
:10250000E90010927F0210927E0290937D028093E8
:102510007C02898D811192C08E899D89913A49F4FE
:10252000813209F07DCF47E050E06BE071E080E060
:10253000B3CF913209F074CF833269F48F89988DCB
:10254000B0E0A0E08093070190930801A0930901F7
:10255000B0930A01ADCE803269F48091E80082FF29
:10256000FCCF67E08BE091E00E9424048BEF809326
:10257000E8009ECE823209F09BCE8F8980931201B3
:10258000EEEFFFE7859194918B3F9C4D51F1E0E098
:10259000F8E080910B0190910C01A0910D01B09198
:1025A0000E01803B9440A105B105F1F48091120128
:1025B00080FD1AC0EE3F8AE0F80789F587E797E7C4
:1025C00091838083809160008093800288E19BE00A
:1025D0000FB6F894A895809360000FBE90936000AA
:1025E00067CEEEEFFAE0D5CF8081918187379747AC
:1025F00009F05ECEA89580916000886180936000AC
:102600008091800280936000EE3F2AE0F20789F01B
:102610008091FE0A9091FF0A9183808349CE808148
:1026200091818737980751F29093FF0A8093FE0AB1
:10263000C5CF1092FF0A1092FE0A3ACE0E943104D2
:10264000DC0112960D911C910115110509F4E8CEDB
:10265000D801ED91FC910190F081E02DBE016B5EFF
:102660007F4FC8010995811123CEF801008511859E
:10267000EBCF181619060CF41BCED2CEF1E0FF12E8
:10268000BECE60E171E004CF1F920F920FB60F92A1
:1026900011242F933F934F935F936F937F938F9367
:1026A0009F93AF93BF93EF93FF938091B900887F7F
:1026B000803609F44AC0F0F5883209F4A7C018F54D
:1026C000803109F49BC0B8F4882309F4F9C088303C
:1026D00009F494C0FF91EF91BF91AF919F918F91B9
:1026E0007F916F915F914F913F912F910F900FBE0E
:1026F0000F901F901895883109F488C0803251F7E7
:102700008093280314C0803409F49DC040F48033C2
:10271000B9F38833F9F68093280385ECB0C080358F
:1027200009F485C0883509F496C0883499F60E946A
:10273000F00FD0CF883909F48CC038F5883729F0EC
:1027400050F4883611F0803729F683E080932A030D
:102750001092560257C0883809F47BC0803919F0AE
:10276000803809F0B7CF80915602803208F071C0EE
:10277000E091560281E08E0F809356028091BB005B
:10278000F0E0EA5CFD4F80833DC0803B39F0E0F42F
:10279000803A09F479C0883A09F09CCF84E08093AC
:1027A0002A031092350210923402E091B902F0919E
:1027B000BA0209958091340281110FC081E08093A3
:1027C00034021092140209C0803C09F4A6CF883C60
:1027D00009F4A3CF883B09F07DCFE091350281E079
:1027E0008E0F80933502F0E0EC5EFD4F8081809388
:1027F000BB00909135028091340229C0809105037D
:102800008093BB0085EC8093BC0064CF909127033C
:1028100080912603981758F5E091270381E08E0FE9
:1028200080932703F0E0EA5FFC4F8081E9CFE091DD
:10283000270381E08E0F809327038091BB00F0E097
:10284000EA5FFC4F808390912703809126039817BD
:10285000C8F285E8D8CFE091270381E08E0F8093FE
:1028600027038091BB00F0E0EA5FFC4F80838091FA
:10287000290381115CCF81E08093040384EA809373
:10288000BC0010922A0326CF85EC8093BC001092E6
:102890002A0380915602803230F4E0915602F0E033
:1028A000EA5CFD4F10826091560270E0E091B70241
:1028B000F091B80286E392E00995109256020ACF91
:1028C0001092280334CFAF92BF92CF92DF92EF9253
:1028D000FF920F931F93CF93DF93EC016B015A018B
:1028E00079012417350720F48B2D5901E42EF82E99
:1028F00063E571E0CE010E94DF0FD60114960D91C1
:102900001C91A016B10628F5E016F10608F487011F
:10291000D601ED91FC911197E00FF11FF08010822C
:102920006D917C916A0D7B1D61157105F1F0FB01C4
:1029300001900020E9F73197AF01461B570BCE01FC
:102940000E94B40FF60180819181080F191FD801F0
:10295000FC92CE01DF91CF911F910F91FF90EF90EC
:10296000DF90CF90BF90AF900895888199810097B4
:1029700011F00E940A23198218821D821C821B8278
:102980001A82E0CFEF92FF920F931F93CF93DF93C2
:10299000CDB7DEB7C659D1090FB6F894DEBF0FBE6A
:1029A000CDBF109257031092560388EE93E0A0E03B
:1029B000B0E08093580390935903A0935A03B093C7
:1029C0005B0321E331E030935503209354032FEF51
:1029D0003FEF30936103209360031092A70310929E
:1029E000A6038093A8039093A903A093AA03B0938E
:1029F000AB0383E491E09093A5038093A40310922A
:102A0000F1031092F0031092F4031092F803109265
:102A1000F9031092FA031092FB038FEF93E0A0E00A
:102A2000B0E08093FC039093FD03A093FE03B0936A
:102A3000FF031092000410920104109202041092FD
:102A400003048093040490930504A0930604B093B8
:102A50000704109208041092090410920A041092BC
:102A60000B0480930C0490930D04A0930E04B09378
:102A70000F0410921004109211041092120410927C
:102A800013048093140490931504A0931604B09338
:102A90001704109218041092190410921A0410923C
:102AA0001B0480931C0490931D04A0931E04B093F8
:102AB0001F041092200410922104109222041092FC
:102AC00023048093240490932504A0932604B093B8
:102AD0002704109228041092290410922A041092BC
:102AE0002B0480932C0490932D04A0932E04B09378
:102AF0002F0410923004109231041092320410927C
:102B000033048093340490933504A0933604B09337
:102B10003704109238041092390410923A0410923B
:102B20003B0480933C0490933D04A0933E04B093F7
:102B30003F041092400410924104109242041092FB
:102B400043048093440490934504A0934604B093B7
:102B50004704109248041092490410924A041092BB
:102B60004B0480934C0490934D04A0934E04B09377
:102B70004F0423E0209350041092F3031092F503C6
:102B800088E38093F6031092F70345E0498391E0D0
:102B90009A8389E08B8334E03C8331EA3D839E83D2
:102BA00055E85F83288749879A878B879C8795E1BB
:102BB0009D871E8697E29F879FEF988B998B1A8A35
:102BC0001B8A95E79C8B90E19D8B95E99E8B2F8BC3
:102BD000388F198E8A8F93E39B8F8C8F94E39D8F10
:102BE0008E8F85E38F8F81E888A382E089A380ECB4
:102BF0008AA38BA383E290E00E946E227C0183E291
:102C0000FE013196D70101900D928A95E1F787E098
:102C100090E00E946E228C01DC0111961C921E92A3
:102C20001396FC92EE92129783E290E015969C9395
:102C30008E93149716961C920E94F505FC01A385AD
:102C4000B485109709F08CC0148703878585968515
:102C5000D80114962D913C91820F931F96878587FA
:102C600081E09091F503911101C080E09091F4030F
:102C70009A5F890F809351041092C0031092C10390
:102C80001092C2031092C3031092C4031092C503A2
:102C90001092C6031092C7031092C8031092C90382
:102CA0001092CA031092CB031092CC031092CD0362
:102CB0001092CE031092CF031092D0031092D10342
:102CC0001092D2031092D3031092D4031092D50322
:102CD0001092D6031092D7031092D8031092D90302
:102CE0001092DA031092DB031092DC031092DD03E2
:102CF0001092DE031092DF031092E0031092E103C2
:102D00001092E2031092E3031092E4031092E503A1
:102D10001092E6031092E7031092E8031092E90381
:102D20001092EA031092EB038FEF9FEF9093ED0365
:102D30008093EC039093EF038093EE0390E080E0A8
:102D40002091F4032817190699F094F0E091F0030C
:102D5000F091F103E80FF91F10820196F1CFDC0129
:102D60008D919C9111970097D1F70D931C936ECF85
:102D70001092B7031092B6031092B8031092BA03E0
:102D80001092B90380E890E09093BC038093BB035A
:102D900063E571E080EB93E0CA56DF4F0FB6F8941D
:102DA000DEBF0FBECDBFDF91CF911F910F91FF907E
:102DB000EF900C94DF0FCF93DF93CDB7DEB7E4979E
:102DC0000FB6F894DEBF0FBECDBF789484B5826095
:102DD00084BD84B5816084BD85B5826085BD85B5BF
:102DE000816085BD80916E00816080936E0010923D
:102DF00081008091810082608093810080918100B8
:102E00008160809381008091800081608093800048
:102E10008091910082608093910080919100816007
:102E200080939100809190008160809390008091C8
:102E3000C10084608093C1008091C1008260809352
:102E4000C1008091C10081608093C1008091C30066
:102E500081608093C3008091C00082608093C00035
:102E60008091C20081608093C20080917A0084606A
:102E700080937A0080917A00826080937A008091BA
:102E80007A00816080937A0080917A0080688093D4
:102E90007A001092B6021092830210928202809100
:102EA000D70081608093D70080EA8093D80089B5ED
:102EB000806189BD89B5826089BD09B400FEFDCFFE
:102EC00061E070E080E090E00E94B4028091D80060
:102ED0008F7C80618093D8008091E000807F809318
:102EE000E0008091E1008E7E8093E1008DE0809390
:102EF000E200559A209A0FB6F894A8958091600048
:102F0000886180936000109260000FBE8FEF9FEF8A
:102F100090936103809360038BEBE82E82E0F82EA0
:102F200010E000E0C8010E941220D7018D937D01BE
:102F30000F5F1F4F07321105A9F78091BB029091D7
:102F4000BC02A091BD02B091BE0281339344A24560
:102F5000B34549F40091E0021091E1020E9475012D
:102F60000817190721F00E94D8090E942810109212
:102F700010041092110410921204109213048FEF97
:102F80009FE7A0E0B0E08093140490931504A09311
:102F90001604B0931704109218041092190410929A
:102FA0001A0410921B0480931C0490931D04A09398
:102FB0001E04B0931F04109220041092210410925A
:102FC0002204109223048093240490932504A09358
:102FD0002604B09327041092F2030E94300D109241
:102FE000CC031092CD031092CE031092CF038091A8
:102FF000F20381110E94300D1092D0031092D10380
:103000001092D2031092D3038091F20381110E9497
:10301000300D1092D4031092D5031092D603109263
:10302000D7038091F20381110E94300D0E94300D70
:103030000E94AC068CE08093B8001092840288EB6A
:103040009BE0A0E0B0E080932C0390932D03A0932D
:103050002E03B0932F0381E080932B030E94010D78
:103060008093A502882361F080E094E09093BA03F6
:103070008093B90380EE90E09093BC038093BB03F0
:103080008091C902882309F4D6C06091C30270916F
:10309000C4028091C5029091C6020E94161F6093DF
:1030A0009D0270939E0280939F029093A002809154
:1030B000D402882309F4C8C06091CE027091CF0277
:1030C0008091D0029091D1020E94161F60939502C8
:1030D0007093960280939702909398028091DF02FA
:1030E000882309F4BAC06091D9027091DA02809104
:1030F000DB029091DC020E94161F60938D02709398
:103100008E0280938F029093900288E19EE00FB62A
:10311000F894A895809360000FBE90936000A895E6
:1031200084E593E00E941405181619060CF072C489
:1031300084E593E00E94D2044091B4035091B5031A
:103140008A3019F08D3009F040C44115510541F322
:103150001CA21BA21EA21DA218A61FA26091B00352
:103160007091B1036115710521F0CE0183960E9423
:10317000B40FCBA0DCA0C114D10439F00FA118A565
:1031800076010115110509F072C08FA198A5892B50
:1031900009F4D0C064E571E0CE0141960E94DF0FD2
:1031A000BE016F5E7F4FCE0183960E94540F11E0E7
:1031B000811129C069E571E0CE010B960E94DF0FF5
:1031C000BE01655F7F4FCE0183960E94540F11E0D0
:1031D000811115C064E671E0CE0101960E94DF0FF7
:1031E000BE016F5F7F4FCE0183960E94540F11E0A6
:1031F000811101C010E0CE0101960E94280DCE0180
:103200000B960E94280DCE0141960E94280D112395
:1032100009F463C086E192E00E94A70486E092E090
:103220000E94A70481E092E00E94A7048BEF91E046
:103230000E946E0C7FC06091BF027091C0028091AD
:10324000C1029091C20229CF6091CA027091CB0253
:103250008091CC029091CD0237CF6091D5027091D0
:10326000D6028091D7029091D80245CF75015701BF
:10327000FFEFAF1ABF0AD7018C91082E000C990BF3
:103280000E940B1F892B91F7015011090C0D1D1D78
:10329000F8018081082E000C990B0E940B1F892BCE
:1032A00031F00E151F0518F001501109F1CF0F5F15
:1032B0001F4FA8014E195F0958A74FA3CE14DF0472
:1032C00020F4B701C6010E945824EBA1FCA18FA1F4
:1032D00098A5E80FF91F108258CF60E771E0CE0182
:1032E0000B960E94DF0FBE01655F7F4FCE01839674
:1032F0000E94540F11E0811115C06BE771E0CE01FF
:1033000001960E94DF0FBE016F5F7F4FCE01839653
:103310000E94540F11E0811101C010E0CE0101960E
:103320000E94280DCE010B960E94280D112379F0E2
:103330000E94860CCE0183960E94280D50E040E04A
:1033400063E571E080EB93E00E94B40FE9CE65E89D
:1033500071E0CE0101960E94DF0FBE016F5F7F4FCB
:10336000CE0183960E94540F182FCE0101960E9421
:10337000280D112349F00E94D8090E9428108DEED3
:1033800091E00E946E0CD4CF6FE871E0CE010196FF
:103390000E94DF0FBE016F5F7F4FCE0183960E94B8
:1033A000540F182FCE0101960E94280D1123C9F049
:1033B0001092BF021092C0021092C1021092C2027B
:1033C0008FEF9FE7A0E0B0E08093C3029093C40228
:1033D000A093C502B093C6020E9428108FED91E021
:1033E000D0CF69E971E0CE0101960E94DF0FBE01E6
:1033F0006F5F7F4FCE0183960E94540F182FCE012E
:1034000001960E94280D1123C9F01092CA02109251
:10341000CB021092CC021092CD028FEF9FE7A0E07A
:10342000B0E08093CE029093CF02A093D002B093ED
:10343000D1020E9428108FEC91E0A3CF65EA71E0E1
:10344000CE0101960E94DF0FBE016F5F7F4FCE015C
:1034500083960E94540F182FCE0101960E94280DCA
:103460001123C9F01092D5021092D6021092D70201
:103470001092D8028FEF9FE7A0E0B0E08093D902CE
:103480009093DA02A093DB02B093DC020E94281032
:103490008EEB91E076CF62EB71E0CE0101960E9457
:1034A000DF0FBE016F5F7F4FCE0183960E94540FE6
:1034B000182FCE0101960E94280D112309F1809149
:1034C000AA029091AB02092E000CAA0BBB0B8093B1
:1034D000BF029093C002A093C102B093C2020E94A7
:1034E00028108DEA91E00E94A7046091BF027091BC
:1034F000C0028091C1029091C2020E947A0C18CF42
:103500006EEB71E0CE0101960E94DF0FBE016F5F8E
:103510007F4FCE0183960E94540F182FCE01019643
:103520000E94280D1123F9F08091AA029091AB021C
:10353000092E000CAA0BBB0B8093C3029093C4020C
:10354000A093C502B093C6020E9428108CE991E0B6
:103550000E94A7046091C3027091C4028091C502C9
:103560009091C602CACF6AEC71E0CE0101960E942A
:10357000DF0FBE016F5F7F4FCE0183960E94540F15
:10358000182FCE0101960E94280D1123F9F0809189
:10359000A8029091A902092E000CAA0BBB0B8093E4
:1035A000CA029093CB02A093CC02B093CD020E94AA
:1035B000281089E891E00E94A7046091CA027091E6
:1035C000CB028091CC029091CD0297CF68ED71E053
:1035D000CE0101960E94DF0FBE016F5F7F4FCE01CB
:1035E00083960E94540F182FCE0101960E94280D39
:1035F0001123F9F08091A8029091A902092E000CE4
:10360000AA0BBB0B8093CE029093CF02A093D00263
:10361000B093D1020E94281086E791E00E94A7048F
:103620006091CE027091CF028091D0029091D10230
:1036300064CF66EE71E0CE0101960E94DF0FBE01FD
:103640006F5F7F4FCE0183960E94540F182FCE01DB
:1036500001960E94280D1123F9F08091A602909105
:10366000A702092E000CAA0BBB0B8093D5029093E6
:10367000D602A093D702B093D8020E94281082E607
:1036800091E00E94A7046091D5027091D6028091CA
:10369000D7029091D80231CF65EF71E0CE0101964B
:1036A0000E94DF0FBE016F5F7F4FCE0183960E94A5
:1036B000540F182FCE0101960E94280D1123F9F006
:1036C0008091A6029091A702092E000CAA0BBB0BB9
:1036D0008093D9029093DA02A093DB02B093DC02CC
:1036E0000E9428108EE491E00E94A7046091D90204
:1036F0007091DA028091DB029091DC02FECE64E0F0
:1037000072E0CE0101960E94DF0F4D815E818FA194
:1037100098A58417950778F08BA19CA1009759F084
:1037200069817A816115710531F00E94732411E07D
:10373000892B09F010E0CE0101960E94280D11237B
:1037400009F451C02FA138A54AE050E0BE016D5DDB
:103750007F4FCE014D960E94631489A19AA1892BB7
:10376000F1F10D8D1E8D6CE270E0C8010E946124A4
:103770000097A9F1DC01A01BB10B8D011A161B06E5
:1037800074F59D0150E040E0BE01635E7F4FCE01C5
:1037900047960E94631429A13AA1A8014F5F5F4F89
:1037A000BE01635E7F4FCE0141960E946314FE010D
:1037B00031965F01F12CE12C10E000E0CD88DE882D
:1037C000EC14FD0454F1023011050CF05CC0CE0184
:1037D00041960E94280DCE0147960E94280DCE01E9
:1037E0004D960E94280D6FE072E0CE0101960E9476
:1037F000DF0FBE016F5F7F4FCE0183960E94540F93
:10380000182FCE0101960E94280D112309F492CDA4
:103810000E94281086E391E00BCDEC14FD0488F49F
:1038200089889A886CE270E0C4018E0D9F1D0E9409
:103830006124009731F0881999098F3F980709F0A2
:103840006C019601A701BE016F5E7F4FCE010B9602
:103850000E9463148B859C85009709F4AEC00E947A
:10386000CF1E0F5F1F4FD5016D937D935D01CE017C
:103870000B960E94280D7601BFEFEB1AFB0A05306C
:10388000110509F09BCF6AEB71E0CE010B960E9407
:10389000DF0FBE01655F7F4FCE0147960E94540F38
:1038A000F82ECE010B960E94280DEFEBF2E0F110FE
:1038B0002DC062ED71E0CE010B960E94DF0FBE01BC
:1038C000655F7F4FCE0147960E94540FF82ECE01C0
:1038D0000B960E94280DEAECF2E0F11017C06EEE94
:1038E00071E0CE010B960E94DF0FBE01655F7F4F36
:1038F000CE0147960E94540FF82ECE010B960E94DF
:10390000280DE5EDF2E0FF2009F461CF89819A816D
:10391000092E000CAA0BBB0B80839183A283B38377
:103920008B819C81092E000CAA0BBB0B8483958391
:10393000A683B7830230110509F18D819E8197FD21
:1039400040C08F31910514F08EE190E08087033004
:103950001105A1F08F81988597FD35C08F319105B4
:1039600014F08EE190E081870530110539F481E093
:1039700029853A85232B09F480E082870E9428104C
:103980008FE391E00E94A7044B8D5C8D6F89788D49
:1039900084E593E00E9476040E94660C0E94860CE7
:1039A000CE0141960E94280DCE0147960E94280D17
:1039B000CE014D960E94280DBDCC60E070E0CB0199
:1039C00050CF80E0C3CF80E0CECF4038510508F023
:1039D000A7CB89831A828A010F5F1F4FB80180EB42
:1039E00093E00E948C0F882309F49ACB2091B003B6
:1039F0003091B1038091B4039091B503BE016F5F24
:103A00007F4F820F931F0E946C241093B503009385
:103A1000B40386CBC090AA02D090AB028091A502DD
:103A2000882309F47EC1B60180E00E94860B6C01F8
:103A30006091A8027091A90282E00E94860B8C011D
:103A40006091A6027091A70281E00E94860B4C0152
:103A5000D092AB02C092AA021093A9020093A802CE
:103A60009093A7028093A60222E538EB4EE15FE334
:103A700060919D0270919E0280919F029091A002A0
:103A80000E94511F2B013C010D2C000CEE08FF0879
:103A9000C701B6010E94161F2CE53FE842EC5EE329
:103AA0000E94511F9B01AC01C301B2010E94BB20C7
:103AB00060939D0270939E0280939F029093A00258
:103AC0000E9427214FEB52E00E949D0869A77AA728
:103AD0008BA79CA76093990270939A0280939B0294
:103AE00090939C0222EE3AE744E15FE360919502F5
:103AF0007091960280919702909198020E94511FB6
:103B00002B013C01C801110FAA0BBB0B89AB9AAB6F
:103B1000ABABBCABBC01CD010E94161F2DE33AE05C
:103B200047ED5EE30E94511F9B01AC01C301B2014E
:103B30000E94BB2060939502709396028093970237
:103B4000909398020E9427214AEC52E00E949D081F
:103B50006DA77EA78FA798AB609391027093920296
:103B6000809393029093940222E538EB4EE15FE359
:103B700060918D0270918E0280918F0290919002DF
:103B80000E94511F2B013C01092C000CAA08BB0804
:103B9000C501B4010E94161F2CE53FE842EC5EE32C
:103BA0000E94511F9B01AC01C301B2010E94BB20C6
:103BB00060938D0270938E0280938F029093900297
:103BC0000E94272145ED52E00E949D082B013C01F7
:103BD0004092890250928A0260928B0270928C020B
:103BE00089A59AA5ABA5BCA58093CC039093CD03E2
:103BF000A093CE03B093CF038091F20381110E9472
:103C0000300D8DA59EA5AFA5B8A98093D003909344
:103C1000D103A093D203B093D3038091F203811117
:103C20000E94300D4092D4035092D5036092D60387
:103C30007092D7038091F20381110E94300D0E948F
:103C4000300D0E94E60200918502109186022091BB
:103C5000870230918802601B710B820B930B6431D9
:103C600071058105910508F454C00E94E602609335
:103C70008502709386028093870290938802109148
:103C800012016AE070E080E090E00E94B40211232B
:103C900009F43FC082E292E00E94A704C701B60186
:103CA0000E943C0C8CE20E94A204609199027091E7
:103CB0009A0280919B0290919C020E943C0C8CE2A3
:103CC0000E94A20469A97AA98BA99CA90E943C0C14
:103CD0008CE20E94A2046091910270919202809104
:103CE0009302909194020E943C0C8CE20E94A204E8
:103CF000C501B4010E943C0C8CE20E94A2046091B8
:103D0000890270918A0280918B0290918C020E94AC
:103D10007A0C80E090E0892B09F401CA0E9400002F
:103D2000FEC90091A8021091A9028090A60290906D
:103D3000A7020E94E6024090A1025090A202609069
:103D4000A3027090A4026419750986099709613D60
:103D500077408105910508F487CE0E94E6026093C2
:103D6000A1027093A2028093A3029093A4020E94E6
:103D7000010D8093A502882309F476CE80E094E0BB
:103D80009093BA038093B90380EE90E09093BC03C4
:103D90008093BB0369CE80EB93E00C94280D1F93B6
:103DA000FC0199278827BC01E89411911032E9F3AE
:103DB000193010F01E30C8F31B3251F01D3249F497
:103DC000689406C00E94F61E610F711D811D911D31
:103DD000119110531A30B0F33EF490958095709580
:103DE00061957F4F8F4F9F4F1F910895592F482FF7
:103DF000372F262F660F771F881F991F660F771F93
:103E0000881F991F620F731F841F951F660F771FEE
:103E1000881F991F089591110C94BE1F803219F0CC
:103E200089508550C8F70895E89409C097FB3EF47F
:103E300090958095709561957F4F8F4F9F4F9923F7
:103E4000A9F0F92F96E9BB279395F6958795779575
:103E50006795B795F111F8CFFAF4BB0F11F460FF35
:103E60001BC06F5F7F4F8F4F9F4F16C0882311F08D
:103E700096E911C0772321F09EE8872F762F05C0A1
:103E8000662371F096E8862F70E060E02AF09A953C
:103E9000660F771F881FDAF7880F9695879597F931
:103EA00008950E94641F0C94D81F0E94CA1F38F006
:103EB0000E94D11F20F0952311F00C94C11F0C9487
:103EC000C71F11240C940C200E94E91F70F3959FCA
:103ED000C1F3950F50E0551F629FF001729FBB2701
:103EE000F00DB11D639FAA27F00DB11DAA1F649F9D
:103EF0006627B00DA11D661F829F2227B00DA11D50
:103F0000621F739FB00DA11D621F839FA00D611DD5
:103F1000221F749F3327A00D611D231F849F600DF6
:103F2000211D822F762F6A2F11249F5750409AF01F
:103F3000F1F088234AF0EE0FFF1FBB1F661F771FAB
:103F4000881F91505040A9F79E3F510580F00C9476
:103F5000C11F0C940C205F3FE4F3983ED4F3869588
:103F600077956795B795F795E7959F5FC1F7FE2B16
:103F7000880F911D9695879597F908959927882719
:103F8000089597F99F6780E870E060E008959FEFDB
:103F900080EC089500240A941616170618060906E0
:103FA000089500240A9412161306140605060895AF
:103FB000092E0394000C11F4882352F0BB0F40F437
:103FC000BF2B11F460FF04C06F5F7F4F8F4F9F4F77
:103FD000089557FD9058440F551F59F05F3F71F0F9
:103FE0004795880F97FB991F61F09F3F79F0879560
:103FF0000895121613061406551FF2CF4695F1DFE9
:1040000008C0161617061806991FF1CF8695710578
:10401000610508940895E894BB2766277727CB01AC
:1040200097F90895F999FECF92BD81BDF89A992725
:1040300080B50895262FF999FECF1FBA92BD81BD94
:1040400020BD0FB6F894FA9AF99A0FBE019608951A
:10405000052E97FB1EF400940E943F2057FD07D0C9
:104060000E94892007FC03D04EF40C943F20509509
:104070004095309521953F4F4F4F5F4F0895909554
:104080008095709561957F4F8F4F9F4F08950E9447
:10409000AB20A59F900DB49F900DA49F800D911D06
:1040A000112408952F923F924F925F926F927F92C8
:1040B0008F929F92AF92BF92CF92DF92EF92FF9238
:1040C0000F931F93CF93DF93CDB7DEB7CA1BDB0BE4
:1040D0000FB6F894DEBF0FBECDBF09942A88398889
:1040E00048885F846E847D848C849B84AA84B98490
:1040F000C884DF80EE80FD800C811B81AA81B9819C
:10410000CE0FD11D0FB6F894DEBF0FBECDBFED01AF
:104110000895A1E21A2EAA1BBB1BFD010DC0AA1F08
:10412000BB1FEE1FFF1FA217B307E407F50720F020
:10413000A21BB30BE40BF50B661F771F881F991F9B
:104140001A9469F760957095809590959B01AC01E4
:10415000BD01CF010895A29FB001B39FC001A39FED
:10416000700D811D1124911DB29F700D811D1124B0
:10417000911D08955058BB27AA270E94D2200C9465
:10418000D81F0E94CA1F38F00E94D11F20F039F4B6
:104190009F3F19F426F40C94C71F0EF4E095E7FB3B
:1041A0000C94C11FE92F0E94E91F58F3BA17620748
:1041B00073078407950720F079F4A6F50C940B207B
:1041C0000EF4E0950B2EBA2FA02D0B01B901900132
:1041D0000C01CA01A0011124FF27591B99F0593F76
:1041E00050F4503E68F11A16F040A22F232F342FBE
:1041F0004427585FF3CF469537952795A795F0400C
:104200005395C9F77EF41F16BA0B620B730B840B20
:10421000BAF09150A1F0FF0FBB1F661F771F881FD8
:10422000C2F70EC0BA0F621F731F841F48F4879530
:1042300077956795B795F7959E3F08F0B0CF939522
:10424000880F08F09927EE0F9795879508950E949B
:104250002E216894B1110C940C2008950E94F11F36
:1042600088F09F5798F0B92F9927B751B0F0E1F037
:10427000660F771F881F991F1AF0BA95C9F714C0E7
:10428000B13091F00E940B20B1E008950C940B2006
:10429000672F782F8827B85F39F0B93FCCF3869520
:1042A00077956795B395D9F73EF49095809570957D
:1042B00061957F4F8F4F9F4F089597FB072E16F400
:1042C000009407D077FD09D00E94512207FC05D049
:1042D0003EF4909581959F4F0895709561957F4F1D
:1042E0000895EE0FFF1F0590F491E02D099497FBC0
:1042F00057FF0C9487219F938F930E9487216E1BF9
:104300007F0BAF91BF918A0B9B0B0895E894DF93CD
:10431000CF93FC01DB010E94AB207F936F93E901F7
:104320009A01AC01BF93AF933F932F93DF010E949B
:10433000AB2026F46C1B7D0B820B930B9E01EB01D3
:10434000FC010E946522AF91BF912F913F910E9485
:104350006522BE01CF01F9012F913F91CF91DF91ED
:104360000895689401C0E894F92FF12B12F00C9491
:10437000E521A0E0B0E0EFEBF1E20C945820092E2B
:10438000059422F40E944122112392F4F0E80F26B2
:10439000FFEFE094F09400951095B094C094D09401
:1043A000A194BF0ACF0ADF0AEF0AFF0A0F0B1F0B07
:1043B0000E94F02107FC0E944122CDB7DEB7ECE05D
:1043C0000C947420689401C0E8948F929F92CF93CC
:1043D000DF930E94F021DF91CF919F908F900895FD
:1043E00088249924F401E401B0E49F93AA279A1544
:1043F0008B049C04ED05FE05CF05D007A10798F4BA
:10440000AD2FDC2FCF2FFE2FE92D982C892E982F42
:10441000872F762F652F542F432F322F2227B85006
:1044200031F7BF9127C01B2EBF91BB27220F331F2F
:10443000441F551F661F771F881F991F881C991CD2
:10444000EE1FFF1FCC1FDD1FAA1FBB1F8A149B047A
:10445000EC05FD05CE05DF05A007B10748F08A1879
:104460009B08EC09FD09CE09DF09A00BB10B216007
:104470001A94E1F62EF49401AF01BE01CD01000CB7
:1044800008956095709580959095309540955095DC
:1044900021953F4F4F4F5F4F6F4F7F4F8F4F9F4F34
:1044A0000895AA1BBB1B51E107C0AA1FBB1FA6177B
:1044B000B70710F0A61BB70B881F991F5A95A9F7CD
:1044C00080959095BC01CD0108950E94AB20460FC8
:1044D000571FC81FD91F08F4319608950F931F93D3
:1044E000CF93DF938230910510F482E090E0E09169
:1044F0005404F091550430E020E0B0E0A0E03097A3
:1045000099F42115310509F44AC0281B390B2430D0
:104510003105D8F58A819B816115710589F1FB010F
:1045200093838283FE0111C04081518102811381F6
:1045300048175907E0F04817590799F4109761F0A8
:1045400012960C93129713961C933296CF01DF911B
:10455000CF911F910F910895009354041093550427
:10456000F4CF2115310551F04217530738F0A90156
:10457000DB019A01BD01DF01F801C1CFEF01F9CFE5
:104580009093550480935404CDCFFE01E20FF31FA6
:10459000819391932250310939832883D7CF209179
:1045A000520430915304232B41F420911501309192
:1045B000160130935304209352042091130130913B
:1045C00014012115310541F42DB73EB74091170173
:1045D00050911801241B350BE0915204F0915304C3
:1045E000E217F307A0F42E1B3F0B2817390778F0CA
:1045F000AC014E5F5F4F2417350748F04E0F5F1F29
:104600005093530440935204819391939FCFF0E0D1
:10461000E0E09CCFCF93DF930097E9F0FC01329765
:1046200013821282A0915404B0915504ED0130E040
:1046300020E01097A1F420813181820F931F2091F7
:104640005204309153042817390709F061C0F093E0
:104650005304E0935204DF91CF910895EA01CE17FD
:10466000DF07E8F54A815B819E0141155105B1F7ED
:10467000E901FB83EA8349915991C40FD51FEC17D7
:10468000FD0761F4808191810296840F951FE901F5
:1046900099838883828193819B838A83F0E0E0E021
:1046A00012968D919C9113970097B9F52D913C919D
:1046B0001197CD010296820F931F209152043091E1
:1046C00053042817390739F6309751F510925504DD
:1046D00010925404B0935304A0935204BCCFD383DC
:1046E000C28340815181840F951FC817D90761F497
:1046F0004E5F5F4F88819981480F591F51834083D6
:104700008A819B81938382832115310509F0B0CF83
:10471000F0935504E09354049ECFFD01DC01C0CF1B
:1047200013821282D7CFB0E0A0E0E9E9F3E20C9463
:1047300054208C01009751F4CB010E946E228C0111
:10474000C801CDB7DEB7E0E10C947020FC01E60FA4
:10475000F71F9C0122503109E217F30708F49DC0AE
:10476000D901CD91DC911197C617D70798F0C530C4
:10477000D10530F3CE0104978617970708F3C61BBF
:10478000D70B2297C193D1936D937C93CF010E9455
:104790000A23D6CF5B01AC1ABD0A4C018C0E9D1EBC
:1047A000A0915404B0915504512C412CF12CE12CD2
:1047B000109731F580915204909153048815990512
:1047C00009F05CC04616570608F058C080911301E6
:1047D00090911401009741F48DB79EB74091170155
:1047E00050911801841B950BE817F90708F055C084
:1047F000F0935304E0935204F90171836083A0CFD6
:104800008D919C91119712966C90129713967C90B3
:104810001397A815B90559F56C0142E0C40ED11CD7
:10482000CA14DB0420F1AC014A195B09DA011296C3
:10483000159780F06282738251834083D9016D9312
:104840007C93E114F10471F0D7011396FC93EE937D
:10485000129776CF22968C0F9D1FF901918380834A
:10486000F301EFCFF0935504E093540469CF481659
:10487000590608F42C017D01D3019ACFCB010E9487
:104880006E227C01009749F0AE01B8010E945824C5
:10489000C8010E940A23870153CF10E000E050CFE7
:1048A0009111089581548A5108F4805E855A0895C3
:1048B000FB01DC0102C001900D9241505040D8F73D
:1048C0000895FC018191861721F08823D9F7992753
:1048D00008953197CF010895FB01DC0101900D92FD
:1048E0000020E1F70895FB01DC014150504030F019
:1048F0008D910190801919F40020B9F7881B990B4C
:10490000089511E0CAE4D1E004C0FE010E947121C3
:0C4910002196CB34D107C9F7F894FFCFF3
:10491C0000C18081000000FFFFFFFF00E1000000EC
:10492C0000000000005604800000400050006000B1
:10493C0070000000002E05AA056C05510500000052
:10494C00008C047604CD04C2041405D204F00400D7
:10495C000000006B083E089A081408370824081554
:10496C00080D0A0050494E47005352435F494445D5
:10497C004E543F0057484F5F4152455F594F5500C9
:10498C004745545F434F4E464947004745545F43A4
:10499C00414C49420052455345545F414C4C0052E6
:1049AC00455345543A4741530052455345543A42B6
:1049BC0052414B450052455345543A434C55544390
:1049CC0048005345545F4D494E3A474153005345B7
:1049DC00545F4D41583A474153005345545F4D493C
:1049EC004E3A4252414B45005345545F4D41583A63
:1049FC004252414B45005345545F4D494E3A434C4E
:104A0C0055544348005345545F4D41583A434C5517
:104A1C00544348005345545F43414C49423A005378
:044A2C0041564500AA
:00000001FF
